:020000040800F2
:10000000C80C0020D50100086D110008B90D0008CA
:1000100055100008F90600086928000800000000D3
:10002000000000000000000000000000411900086E
:10003000FD060008000000003D1700082D1C000808
:10004000EF010008EF010008EF010008EF010008D0
:10005000EF010008EF010008EF010008EF010008C0
:10006000EF010008EF010008EF010008EF010008B0
:10007000EF010008EF010008EF010008EF010008A0
:10008000EF010008EF010008EF010008EF01000890
:10009000EF010008EF010008EF010008EF01000880
:1000A000EF010008EF010008EF010008EF01000870
:1000B000D11E0008EF010008E51E0008EF0100084E
:1000C000EF010008EF010008EF010008EF01000850
:1000D000EF010008EF010008A92400082D25000801
:1000E00001070008EF010008EF010008EF01000818
:1000F000EF010008EF010008EF010008EF01000820
:10010000EF010008EF010008FD1E0008EF010008E4
:10011000EF010008EF010008EF010008EF010008FF
:10012000EF010008EF010008EF010008EF010008EF
:1001300000F002F800F03FF80AA090E8000C8244BA
:100140008344AAF10107DA4501D100F034F8AFF297
:10015000090EBAE80F0013F0010F18BFFB1A43F0A5
:1001600001031847B0560000D0560000103A24BFD3
:1001700078C878C1FAD8520724BF30C830C144BF0C
:1001800004680C607047000000230024002500264E
:10019000103A28BF78C1FBD8520728BF30C148BFEA
:1001A0000B607047642900F07F80002070471FB506
:1001B0001FBD10B510BD00F02EF91146FFF7F7FF77
:1001C00002F0D0FD00F04CF903B4FFF7F2FF03BCDE
:1001D00002F070FB0948804709480047FEE7FEE748
:1001E000FEE7FEE7FEE7FEE7FEE7FEE7FEE7FEE7E7
:1001F00004480549054A064B70470000311C0008B9
:1002000031010008C8060020C80C0020C8080020E2
:10021000C8080020704700000FB41CB5074B06AAA1
:100220007B4469460090059800F0DDF8002069469F
:1002300000F0ECF81CBC5DF814FB0000E9010000C4
:100240002DE9F0410E460446002020622046E16878
:10025000884730B3252805D0D4E901219047206A8A
:10026000401CF2E7E168204600278847050018D0C7
:10027000A5F14100192802D820354FF40067324615
:10028000294620462760FFF78DFF40B1012804D0A2
:10029000F61D26F007060836D8E7361DD6E72846AD
:1002A000DAE7206ABDE8F0812DE9F0410646002436
:1002B00010687529314616A510D0AFF300800028CC
:1002C00002DA404213A507E031688A0701D512A57A
:1002D00002E0490704D511A5012401E0AFF3008035
:1002E00000210A2206F1240709E0B0FBF2FCB0FB72
:1002F000F2F302FB1C00303078541846491C0028E9
:10030000F3D123462A463046BDE8F04100F00CB850
:10031000000000002D0000002B0000002000000065
:1003200070477047704770472DE9F0470D46994672
:100330009246044600F124080168880604D5E06965
:1003400021F01001216000E00120A84201DD471BDF
:1003500000E00027A1697A1902EB0900081AA061E0
:100360002078C00602D42046AFF30080002608E0C3
:10037000D4E901211AF806009047206A401C761C37
:1003800020624E45F4DB2078C0060AD52046AFF344
:10039000008006E0D4E9012130209047206A401C0B
:1003A0002062381EA7F10107F4DC07E0D4E901213F
:1003B00018F805009047206A401C2062281EA5F10D
:1003C0000105F3DC2046AFF300802078000602D55B
:1003D0000220BDE8F0870120FBE7000001694A1C0C
:1003E00002610878704700B58FB0CDE90131002176
:1003F000059105497944CDE9031011466846FFF798
:100400001FFF0FB000BD0000E5FFFFFF0A6802F804
:10041000010B0A607047754600F028F8AE460500EB
:100420006946534620F00700854618B020B5FFF70F
:10043000DFFEBDE820404FF000064FF000074FF010
:1004400000084FF0000B21F00701AC46ACE8C009F2
:10045000ACE8C009ACE8C009ACE8C0098D467047FB
:100460000446AFF300802046FFF7AEFE0048704719
:100470006406002021B1826842F00102826003E03C
:10048000826822F0010282607047000010B50446C5
:100490001248844208D10121401501F08DF9002154
:1004A000601501F089F917E00D48844208D1012157
:1004B000001501F081F90021201501F07DF90BE014
:1004C0000848844208D10121C80301F075F90021D0
:1004D0004FF4004001F070F910BD0000002401400D
:1004E00000280140003C0140014600208A6802F0DB
:1004F00004020AB1012000E0002070470146C86CE8
:1005000080B270470246002013680B400BB10120F7
:1005100000E000207047014600208A6802F00802CF
:100520000AB1012000E000207047000030B502460B
:100530000020002350680F4C20400D790C6844EADD
:1005400005242043506090680B4C2040D1E90254B0
:100550002C434D7944EA450420439060D06A20F44E
:1005600070000C7C641EE4B2234340EA0350D06266
:1005700030BD0000FFFEF0FFFDF7F1FFF0B50446CF
:100580000D4600200021092D11DDE068A5F10A06C5
:1005900006EB4607072606FA07F18843A5F10A0687
:1005A00006EB460603FA06F10843E0600CE020691A
:1005B00005EB4507072606FA07F1884305EB4506D4
:1005C00003FA06F108432061072A0FDA606B561E12
:1005D00006EB86071F2606FA07F18843561E06EB30
:1005E000860605FA06F10843606322E00D2A0FDA59
:1005F000206BD61F06EB86071F2606FA07F18843F5
:10060000D61F06EB860605FA06F10843206310E0C4
:10061000E06AA2F10D0606EB86071F2606FA07F12F
:100620008843A2F10D0606EB860605FA06F108439B
:10063000E062F0BD816841F008018160704721B13E
:10064000826842F4A002826003E0826822F4A00281
:1006500082607047816841F004018160704700004A
:1006600000B587B001214FF4027001F095F84FF406
:10067000004001F065F80220ADF8040000208DF87C
:10068000070001A9174800F0B7FA1748FFF7FEFE68
:10069000002002908DF80C008DF80D004FF46020C2
:1006A00004900020059001208DF8180002A90E4842
:1006B000FFF73CFF01210C48FFF7DCFE0A48FFF77B
:1006C000B9FF00BF0848FFF726FF0028FAD1064807
:1006D000FFF7C0FF00BF0448FFF706FF0028FAD16C
:1006E00007B000BD000C0140002401400149086032
:1006F0007047000000860D4200BFFEE77047000013
:1007000010B5042002F0FAF80548006830B94FF43B
:10071000804000F033F801200249087010BD00004D
:10072000388121422B0000200EB500F0E7FB0121AB
:10073000084601F031F80521002000F03DFA4FF4A1
:100740008040019000208DF808000C208DF80900F1
:1007500001208DF80A0001A800F016F828208DF875
:10076000000001208DF8030002208DF80100012017
:100770008DF80200684600F0FBFC0EBD01490860E0
:100780007047000014040140002123498279002AA7
:100790003AD00A46126803689A430B461A600A1D4B
:1007A000126803689A430B1D1A60027911440A68A3
:1007B00003681A430A60184A0832126803689A43A9
:1007C000154B08331A601A1D126803689A43124BBE
:1007D0000C331A604279102A0ED11A1F126803686E
:1007E0001A430D4B08331A601A1D126803681A4326
:1007F000094B0C331A600DE00749427911440A682D
:1008000003681A430A6005E0027911440A68036824
:100810009A430A60704700000004014000B589B0A7
:100820000121084600F098FF0121042000F0B4FFE8
:100830000320ADF8040004208DF8070001A9224828
:1008400000F0DAF91C208DF8200001208DF823003B
:100850008DF8210003208DF8220008A800F088FC04
:1008600005A801F0DBFD0020ADF814004FF6FF7085
:10087000ADF818000020ADF81A00ADF8160005A973
:100880004FF0804001F078FD00231A4603214FF01D
:10089000804001F010FC02A801F08EFC0A20ADF8A7
:1008A000100002A9400701F031FC0121880701F086
:1008B000E1FB01221146900701F087FC0121880726
:1008C00001F0DEFB09B000BD0008014000B589B0B1
:1008D0000121042000F040FF0121082000F05CFF0E
:1008E000C020ADF8040004208DF8070001A92148BC
:1008F00000F082F91E208DF8200001208DF82300E1
:100900008DF8210003208DF8220008A800F030FCAB
:1009100005A801F083FD0020ADF814004FF6FF702C
:10092000ADF818000020ADF81A00ADF8160005A9C2
:10093000114801F021FD00231A4603210E4801F061
:10094000BAFB02A801F038FC0A20ADF8100002A999
:10095000094801F0DBFB0121074801F08BFB012274
:100960001146054801F031FC0121034801F088FBE4
:1009700009B000BD000C01400008004000205F49A4
:1009800008705F4908705F480078012806D15E480A
:100990005E4908605E485F49086099E05948C0793F
:1009A000012807D15848594908604FF081405949FA
:1009B00008608DE053484078012806D152485349D9
:1009C000086055485349086082E04E488079012804
:1009D00006D14D484D49086050484E49086077E0BF
:1009E00048488078012807D14748484908604FF0B7
:1009F0004040484908606BE042484079012806D1F0
:100A0000414842490860C0024249086060E03D48F0
:100A10000078E0B93B484078C8B93A488078B0B926
:100A20003848C078012812D13648007978B935485D
:100A3000407960B93348807948B93248C07930B9D3
:100A400031483249086036483249086040E02D4854
:100A50000078E8B92B484078D0B92A488078B8B9EE
:100A60002848C078A0B927480079012810D1254826
:100A7000407968B92348807950B92248C07938B99B
:100A80002148224908604FF07E50224908601FE04B
:100A90001C480078E0B91B484078C8B919488078EC
:100AA000B0B91848C078012812D116480079012839
:100AB0000ED11448407958B91248807940B911488C
:100AC000C07928B910481149086000201149086010
:100AD00014480078012805D113480078401C1249B9
:100AE000087002E00020104908700F4800780528BF
:100AF00002DD01200D490870704700000E00002043
:100B00000F000020C90000200000C841380000206C
:100B1000000080C044000020000040C000004040B1
:100B2000000080BFD1000020200000201000002025
:100B300010B50A221A491B4800F0EEFE184800883A
:100B40004FF6FF71884214D115484088884210D171
:100B50001348808888420CD11148C088884208D147
:100B60001E20114908701148114908601149086098
:100B700014E00B49088803F091FF044603F056FF88
:100B8000094908700649488803F088FF0849086049
:100B90000349888803F082FF0649086010BD000001
:100BA0001C02002000E0000870000020000040410E
:100BB000680000206C00002030B500228B071C0F5D
:100BC0000F2303FA04F20B4B8C1053F82430934399
:100BD000084C8D1044F8253023468C1053F82430EF
:100BE0008C07240F00FA04F42343024C8D1044F8C0
:100BF000253030BD080001402DE9F04102460025B6
:100C00000026002000230024002791F803C00CF0E8
:100C10000F0591F803C00CF0100CBCF1000F03D0CD
:100C200091F802C04CEA050591F800C0BCF1000F34
:100C300031D0146800202BE04FF0010C0CFA00F3C7
:100C4000B1F800C00CEA03069E4220D183004FF0A9
:100C50000F0C0CFA03F7BC4305FA03FC4CEA04043E
:100C600091F803C0BCF1280F06D14FF0010C0CFA2B
:100C700000FCC2F814C00AE091F803C0BCF1480FB0
:100C800005D14FF0010C0CFA00FCC2F810C0401C5A
:100C90000828D1D31460B1F800C0BCF1FF0F34DDD7
:100CA000546800202EE000F1080C4FF0010808FA0B
:100CB0000CF3B1F800C00CEA03069E4221D1830078
:100CC0004FF00F0C0CFA03F7BC4305FA03FC4CEA97
:100CD000040491F803C0BCF1280F05D100F1080C01
:100CE00008FA0CF8C2F8148091F803C0BCF1480F60
:100CF00007D100F1080C4FF0010808FA0CF8C2F80F
:100D00001080401C0828CED35460BDE8F081024614
:100D1000002093680B400BB1012000E000207047D9
:100D20000161704710B50446072301222146094896
:100D3000FFF724FC01210748FFF781FC00BF0221D7
:100D40000448FFF7DFFB0028F9D00248FFF7D6FB85
:100D500010BD0000002401402DE9F04F85B00920AE
:100D6000FFF7E0FF019003F08AFC4FF066320E4B74
:100D7000CDE9020103F0D2FC804600220B4B03F0C8
:100D8000CDFC064600220A4B03F0C8FC04460022B4
:100D9000084B03F0EDFA824603F042FC04900498FD
:100DA00005B0BDE8F08F000066660A4000002640EE
:100DB000000059400000B04000BFFEE72DE9F05FA1
:100DC00004460D46601B1A4908600846006803F097
:100DD0004DFE834617480168584603F0A7FE80463B
:100DE00013490968144A1268881A03F03FFE8346C3
:100DF00012480168584603F099FE8146414603F0C7
:100E00008BFD07460E48006803F030FE82463946E7
:100E100003F082FD064603F0EDFD09490860044831
:100E200000680549086006480068BDE8F09F0000BA
:100E3000F00000206C000020F80000206800002076
:100E4000F40000202DE9F05F04460D46601B1A49AE
:100E500008600846006803F009FE834617480168E9
:100E6000584603F063FE804613490968144A126825
:100E7000881A03F0FBFD834612480168584603F0C8
:100E800055FE8146414603F047FD07460E4800687F
:100E900003F0ECFD8246394603F03EFD064603F0C2
:100EA000A9FD09490860044800680549086006482A
:100EB0000068BDE8F09F0000FC0000206C000020EE
:100EC00004010020680000200001002001464906BE
:100ED000084A926942F00102064B9A61064A52683A
:100EE00022F0E062044B5A601A4652680A435A6084
:100EF00070470000001002400000014008B50121C9
:100F0000082000F049FC48208DF803004FF4804091
:100F1000ADF8000003208DF8020069460148FFF794
:100F20006BFE08BD000C014070B504460D46294615
:100F3000204603F0F1FC064603F05CFD054908601D
:100F40002946204603F0BEFE064603F053FD024943
:100F5000086070BD540000205800002008B5012131
:100F6000082000F019FC10208DF803004002ADF8B5
:100F7000000003208DF8020069460448FFF73CFE9C
:100F80004FF400510148FFF7CBFE08BD000C0140B3
:100F900010B501212048FFF7BAFED0B900201F4943
:100FA00008701F480078A8BB1E480078401C1D49E7
:100FB00008700846007832282CDD01201849087096
:100FC0004FF47A7001F09AFC4FF47A7001F096FCBD
:100FD00020E001211048FFF79AFE01281AD10020D5
:100FE000104908700E480078012813D10B4800788A
:100FF000401C0A4908700846007832280ADD0220A1
:10100000074908704FF47A7001F078FC4FF47A7059
:1010100001F074FC10BD0000000C0140A100002094
:10102000A2000020A000002008B50121082000F047
:10103000B3FB28208DF803000120ADF80000032049
:101040008DF8020069460248FFF7D6FD08BD000092
:10105000000C014000BFFEE708B50121082000F0A8
:101060009BFB3020ADF8000010208DF8030003201A
:101070008DF8020069460B48FFF7BEFD01210820EC
:1010800000F08AFB4FF41040ADF8000010208DF8FE
:10109000030003208DF8020069460348FFF7ACFD0A
:1010A00008BD0000000C01400008014030B589B0C7
:1010B00005460C460121C80200F06EFB0121042008
:1010C00000F06AFB18208DF807004FF41060ADF8AF
:1010D000040003208DF8060001A92248FFF78CFDCB
:1010E000ADF81C50ADF818400020ADF81A00ADF86E
:1010F0001E0006A91C4801F03FF96020ADF8080069
:101100000120ADF80A000020ADF80E00ADF8100087
:1011100002A9154801F062F86020ADF8080001202E
:10112000ADF80A000020ADF80E00ADF8100002A9DD
:101130000D4801F0A9F808210B4801F09BF808219F
:10114000094801F0DFF80121074800F087FF01217D
:10115000054800F0A1FF0121034800F091FF09B00C
:1011600030BD000000080140002C01407047000025
:1011700070B5002100230F22C47804B3154C2468F5
:1011800004F4E064C4F5E064210AC1F10403CA4038
:10119000447804FA03F184781440214309010E4C89
:1011A0000678A155047804F01F050124AC400578A9
:1011B0006D11AD0005F1E025C5F8004109E00478A6
:1011C00004F01F050124AC40044D0678761145F863
:1011D000264070BD0CED00E000E400E080E100E09E
:1011E00002490143024A1160704700000000FA05FD
:1011F0000CED00E030B500240CE0002506E00020F6
:10120000074901EBC5010855681CC5B2802DF6DB06
:10121000601CC4B2082CF0DB00F0D2F830BD000036
:1012200044020020F0B5144600267F2801DC3F2947
:1012300000DDF0BD0B46CF1701EB5777FF10C7F16C
:101240000707FAB2CF1701EB5777FF10A1EBC707DB
:10125000FDB2C5F107070123BB40DEB24CB10A4B1A
:1012600003EBC0039B5C3343074F07EBC007BB5442
:1012700008E0054B03EBC0039B5CB343024F07EB55
:10128000C007BB5400BFD4E74402002008B50121C9
:10129000102000F081FA0121084600F07DFA4EF29C
:1012A0000100ADF8000010208DF8030002208DF839
:1012B000020069463F48FFF79FFC012000F038FA22
:1012C000002000F0F3FA0020FFF710FA002000F0F1
:1012D0002FFA002038490860642001F00FFB01203C
:1012E0003649C1F8BC010021AE2000F04FF90021C1
:1012F000D52000F04BF90021502000F047F90021E3
:10130000A82000F043F900213F2000F03FF9002120
:10131000D32000F03BF90021084600F037F9002106
:10132000402000F033F900218D2000F02FF900213A
:10133000142000F02BF90021202000F027F90021D3
:10134000022000F023F90021A12000F01FF9002164
:10135000C02000F01BF90021DA2000F017F900216D
:10136000122000F013F90021812000F00FF9002174
:10137000EF2000F00BF90021D92000F007F900213F
:10138000F12000F003F90021DB2000F0FFF800213C
:10139000302000F0FBF80021A42000F0F7F8002135
:1013A000A62000F0F3F80021AF2000F0EFF8FFF7DF
:1013B00021FF08BD00100140BC0122420000224272
:1013C00030B500241CE004F1B001C8B2002100F0E7
:1013D000DDF80021084600F0D9F80021102000F0C7
:1013E000D5F8002508E0084901EBC501085D012199
:1013F00000F0CCF8681CC5B2802DF4DB601CC4B2D0
:10140000082CE0DB30BD0000440200202DE9F04F45
:1014100080460C4615461E46A346A5F12000C5B2DF
:1014200000273EE00C2E07D105EB45001F4901EBDC
:10143000800010F8079004E01D4800EB051010F83C
:1014400007904FF0000A26E009F0800028B12146FD
:101450004046099AFFF7E6FE09E0099808B901201D
:1014600000E00020024621464046FFF7DBFE4FEA3F
:1014700049604FEA1069601CC4B2A4EB0B00B04293
:1014800005D15C4608F1010000F0FF0806E00AF112
:10149000010000F0FF0ABAF1080FD5DB00BF781C8D
:1014A000C7B2B742BEDBBDE8F08F0000AE4D00080A
:1014B000225200082DE9FF4F81B0074691461E4693
:1014C0000E9D4FF0000A002439E0301B401EC1B2CF
:1014D0000A2002F08EFCB9FBF0F00A21B0FBF1F219
:1014E00001FB1208BAF1000F16D1701EA04213DDE5
:1014F000B8F1000F0ED10120AB4605EBDB714910AE
:1015000001FB04710090C8B22B4620220299FFF71C
:101510007DFF12E04FF0010A0120AB4605EBDB71C5
:10152000491001FB04710090C8B208F13001CAB241
:101530002B460299FFF76AFF00BF601CC4B2B44299
:10154000C3DB05B0BDE8F08F78B505460E461446FE
:1015500018E07A2D03DD002506F11000C6B23A2E00
:1015600004DD002005460646FFF744FE01200090FA
:1015700022780C2331462846FFF748FF05F1080082
:10158000C5B2641C20780028E3D178BD10B50A46A6
:101590001AB10123124C236002E00023104C236097
:1015A000002116E000230E4C3434236000F0800349
:1015B0001BB10123241D236003E00023084C3834B1
:1015C00023600123064C343423604306180E4B1C61
:1015D000D9B20829E6DB0123014C236010BD0000CD
:1015E0008001224210B50146494A127872B92C296D
:1015F0000CD10122464B1A70464A13781278521CBD
:10160000444C2270444A22F813107FE0404A12787A
:10161000012A0ED112290CD102223D4B1A703D4AEB
:1016200013781278521C3B4C22703B4A22F813105C
:101630006CE0374A1278022A37D1364A137812788A
:10164000521C344C2270344A22F81310224612786D
:101650000A2A01DA5B2959D103222D4B1A702D4A2F
:101660001278521F2C4B13F812202C4B1A70294A57
:101670001278121F284B13F81220294B1A70254A92
:101680001278D21E244B13F81220264B1A70214ACE
:101690001278921E204B13F81220234B1A70234A03
:1016A0001268521C214B1A6030E0194A1278032A42
:1016B0001DD1184A1278521E174B33F812205B2A9C
:1016C00005D10022134B1A70114B1A701EE0002234
:1016D0000F4B1A700F4B1A70002005E000220E4BC2
:1016E00023F81020421CD0B20A28F7DB0EE00022BB
:1016F000074B1A70074B1A70002005E00022064BBA
:1017000023F81020421CD0B20A28F7DB10BD0000DD
:10171000C0000020BF00002044060020B0000020D0
:10172000B1000020B2000020B3000020AC00002077
:10173000014908627047000000000E427047000037
:1017400001460020034A506820F44040084350609E
:10175000704700000010024029B1064AD2690243D6
:10176000044BDA6104E0034AD2698243014BDA6137
:10177000704700000010024029B1064A1269024376
:10178000044B1A6104E0034A12698243014B1A6157
:10179000704700000010024029B1064A92690243D6
:1017A000044B9A6104E0034A92698243014B9A61B7
:1017B000704700000010024029B1064AD268024377
:1017C000044BDA6004E0034AD2688243014BDA60DA
:1017D000704700000010024030B5002100220024B4
:1017E00000232D4D6D6805F00C0121B1042905D0B1
:1017F000082923D105E0294D056022E0274D056029
:101800001FE0254D6D6805F47012234D6D6805F4D9
:101810008034022505EB92421CB9214D55430560E9
:101820000BE01D4D6D6805F400351DB11C4D554391
:10183000056002E0194D5543056002E0174D056053
:1018400000BF00BF144D6D6805F0F0010909154D8A
:101850006B5C0568DD4045600F4D6D6805F4E06127
:10186000090A104D6B5C4568DD4085600A4D6D6866
:1018700005F46051C90A0B4D6B5C4568DD40C560DD
:10188000054D6D6805F44041890B074D6B5CC568DB
:10189000B5FBF3F5056130BD0010024000127A007F
:1018A00000093D008C0000209C00002000210B4A14
:1018B00011700A4A203A82F82010012802D0042828
:1018C00008D103E00121054A117004E00521034A13
:1018D000117000E000BF00BF704700002010024000
:1018E0000146022902D0042910D108E04FF08042BD
:1018F000928C10B200224FF080439A8408E0054A8F
:10190000128810B20022034B1A8001E0002000BFB1
:1019100000BF70472408004030B503460C4615460A
:10192000002207E0184600F008F824F812009B1C7B
:10193000501C82B2AA42F5DB30BD014608887047D0
:101940007047000010B51448007890B900240DE0ED
:10195000124803781248027812A11448FEF75CFC82
:101960000421124800F0BAFD601CC4B2042CEFDD63
:1019700010E000240CE009480378002209A10B487C
:10198000FEF74AFC0421094800F0A8FD601CC4B21F
:10199000042CF0DD10BD0000B1000020BC000020D0
:1019A000BD0000202A25642564260000B600002022
:1019B00010B500F001F810BD0CB5002001900090AA
:1019C0003348006840F480303149086000BF304837
:1019D000006800F4003000900198401C01900098CD
:1019E00018B90198B0F5A06FF1D12948006800F44A
:1019F000003010B10120009001E00020009000981C
:101A0000012843D12348006840F0100021490860B4
:101A10000846006820F0030008600846006840F0AF
:101A2000020008601A484068194948600846406842
:101A300048600846406840F4806048600846406856
:101A400020F47C1048600846406840F4E810486084
:101A50000846006840F08070086000BF0C480068CD
:101A600000F000700028F9D00948406820F0030019
:101A7000074948600846406840F00200486000BFDF
:101A80000348406800F00C000828F9D10CBD0000A4
:101A9000001002400020024034480078012804D1A0
:101AA000334800783349087009E03048007830B98D
:101AB00000203049087030490870304908702D48BE
:101AC0000078012809D141202D49087002202D49B4
:101AD000087000202C4908701AE026480078022877
:101AE00009D14220264908700220264908700020AA
:101AF000254908700CE01F480078032808DB4720C0
:101B00001F49087002201F49087000201E490870F4
:101B100018480078092826D2DFE800F02505090DCD
:101B20001115191D21000120184908701BE0022021
:101B30001649087017E003201449087013E00420C8
:101B4000124908700FE00520104908700BE00620CC
:101B50000E49087007E007200C49087003E00820D0
:101B60000A49087000BF00BF70470000B2000020A3
:101B7000B0000020BB000020B4000020B500002011
:101B8000BE000020BD0000202A000020BC00002074
:101B900000B503460A461E480078012803D01D48B8
:101BA0000078012805D1002B00DD0023002A00DD8C
:101BB0000022002B07DD002017490860012017498B
:101BC000C1F8940106E00120134908600020134980
:101BD000C1F89401184602F005F911490880002A5D
:101BE00007DD00200F49086001200F49C1F8B0014E
:101BF00006E001200B49086000200B49C1F8B00144
:101C0000104602F0EFF806490C39088000BD0000CC
:101C10002600002027000020BC0121420080214234
:101C2000402C014090812142000021427047000079
:101C300010B51348006840F00100114908600846DB
:101C40004068104908400E494860084600680E493F
:101C500008400B4908600846006820F480200860AE
:101C60000846406820F4FE0048604FF41F0088607A
:101C7000FFF79EFE4FF000600449086010BD0000B1
:101C8000001002400000FFF8FFFFF6FE08ED00E044
:101C9000F0B50C46154600220021068C4FF6FE7763
:101CA0003E400684028B018C4FF60C7632407E1C3F
:101CB00006EA03162E433243104EB0420ED0104EA9
:101CC000B0420BD0B0F1804F08D00E4EB04205D0DC
:101CD0000D4EB04202D00D4EB04206D14FF6FD7609
:101CE000314044F00106314305E04FF6F5763140CE
:101CF00044F00106314302830184F0BD002C014011
:101D0000003401400004004000080040000C004086
:101D1000F0B50C461546002200210026078C4FF630
:101D2000EF7C07EA0C070784028B018C4FF6FF77E4
:101D300007EA041640F6FF473A404FF6FF7707EAF6
:101D400003373A434FF6FF7707EA05273A43114F27
:101D5000B8420ED0104FB8420BD0B0F1804F08D02F
:101D60000E4FB84205D00E4FB84202D00D4FB842C8
:101D700006D14FF6DF77394046F01007394305E0CA
:101D80004FF65F77394044F01007394302830184EE
:101D9000F0BD0000002C0140003401400004004070
:101DA00000080040000C0040F0B50C46154600222B
:101DB00000210026078C4FF6FF6C07EA0C0707840A
:101DC000828B018C4FF6FF7707EA04264FF60C77DB
:101DD0003A404FF6FF7707EA03172F433A43114F74
:101DE000B8420ED0104FB8420BD0B0F1804F08D09F
:101DF0000E4FB84205D00E4FB84202D00D4FB84238
:101E000006D14FF6FF57394046F48077394305E055
:101E10004FF2FF57394044F480773943828301847D
:101E2000F0BD0000002C01400034014000040040DF
:101E300000080040000C0040F0B50C46154600229A
:101E400000210026078C4EF6FF7C07EA0C0707846A
:101E5000828B018C4FF6FF7707EA043640F6FF4786
:101E60003A404FF6FF7707EA05273A434FF6FF77E8
:101E700007EA03373A43114FB8420ED0104FB84229
:101E80000BD0B0F1804F08D00E4FB84205D00E4FA6
:101E9000B84202D00D4FB84206D14DF6FF77394017
:101EA00046F48057394305E047F6FF57394044F47C
:101EB0008057394382830184F0BD0000002C01402B
:101EC000003401400004004000080040000C0040C5
:101ED00010B50121880700F00FF90121880700F0F3
:101EE000CCF810BD10B50121034800F005F901211F
:101EF000014800F0C2F810BD0008004010B50121F3
:101F0000444800F0F9F801287ED10121414800F051
:101F1000B4F841480088401C3F4908803F48007899
:101F200001280BD13E480078401CC0B23C490870E3
:101F30000A2803D100200870384908703948008801
:101F4000002804DD37480088401C364908803648A0
:101F5000007808B9012000E00020334908700846E5
:101F60000078002855D10220FFF7BAFC40422F49E3
:101F700008600420FFF7B4FC40422D4908602D485A
:101F800001682D480068FEF7CFFF2C48006800F07C
:101F90007DFAC0B92A48016824480068FEF70EFFA0
:101FA000284908602848016821480068FEF74AFF70
:101FB0002649086000F05AFC22480168234800685E
:101FC000FFF7E6FD03E000210846FFF7E1FDFEF71D
:101FD000C3FE1F4908601F480068401C1D49086077
:101FE0001D4800681A49096808441B4908601948D7
:101FF000006864280DD108460068642190FBF1F068
:102000000E490860002000E003E013490860114910
:10201000086010BD000C0040220000206500002078
:1020200064000020EC000020D80000202C000020DC
:102030003000002044000020380000205C00002018
:102040005400002048000020580000204C000020D0
:10205000DC000020E0000020E400002021B1028824
:1020600042F08002028004E002884FF67F731A403B
:1020700002807047CA4302827047CA430282704797
:1020800021B1028842F00102028004E002884FF68A
:10209000FE731A400280704731B1B0F8442042F418
:1020A0000042A0F8442005E0B0F84420C2F30E023C
:1020B000A0F844207047F0B50C4615461E46002196
:1020C000002200230189028B038C4FF6F8773940F8
:1020D00021434FF6FC473A4040F201173A434FF68E
:1020E000DD773B404FF6FF7707EA06172F433B4368
:1020F000018102830384F0BD02460020138A0B4055
:102100000BB1012000E000207047000070B50546CB
:102110000C46244885420ED0234885420BD0B5F1A9
:10212000804F08D02148854205D02148854202D001
:102130002048854200D100E000BF208850B92389A3
:10214000A28861882846FFF7A3FDE188284600F0B1
:10215000E6F825E0208804280AD12389A28861882E
:102160002846FFF7D5FDE188284600F0E1F817E0A2
:10217000208808280AD12389A28861882846FFF789
:1021800013FEE188284600F0E0F809E02389A288E0
:1021900061882846FFF750FEE188284600F0DEF807
:1021A00070BD0000002C01400034014000040040DC
:1021B00000080040000C0040002101804180012106
:1021C00081800021C180018170471AB183890B434E
:1021D000838102E083898B438381704770B500243B
:1021E00000220023058C4FF6FE7635400584028CD4
:1021F0008388048B4FF68F752C40B51E2C400D88BC
:102200002C43751E2A400D892A434D882A43144DBC
:10221000A8420BD0134DA84208D0134DA84205D0B8
:10222000124DA84202D0124DA84213D14FF6F775B5
:102230002A404D892A434FF6FB752A408D882A4350
:102240004FF6FF652B404FF6FF552B408D892B43F2
:10225000CD892B4383800483CD888586028470BD1D
:10226000002C014000340140004001400044014086
:10227000004801400A460021018B4FF6F7731940D0
:10228000114301837047000070B500220023002431
:10229000058C4EF6FF7635400584038C8488828B4E
:1022A00048F6FF752A404FF6FF452A400D884FF645
:1022B000FF7606EA05252A434DF6FF752B400D896A
:1022C00006EA05352B434D8806EA05352B430B4DB1
:1022D000A84202D00A4DA84208D14BF6FF752C4007
:1022E0008D894FF6FF7606EA85152C43848082831C
:1022F000CD88A0F84050038470BD0000002C014040
:10230000003401400A460021818B4FF2FF731940CF
:102310004FF6FF7303EA0223194381837047028B50
:102320004FF6F3731A400283028B0A43028370470D
:10233000028B4FF2FF331A400283028B4FF6FF737A
:1023400003EA01231A4302837047828B4FF6F3732B
:102350001A408283828B0A4382837047828B4FF2BA
:10236000FF331A408283828B4FF6FF7303EA012307
:102370001A43828370470000002202881D4B984256
:102380000ED01D4B98420BD0B0F1804F08D01B4BA4
:10239000984205D01A4B984202D01A4B984204D169
:1023A0004FF68F731A404B881A43174B984207D049
:1023B000164B984204D04FF6FF431A40CB881A437D
:1023C00002808B8883850B8803850A4B98420BD04B
:1023D000094B984208D00E4B984205D00D4B9842BD
:1023E00002D00D4B984201D10B7A038601238382E0
:1023F00070470000002C0140003401400004004000
:1024000000080040000C0040001000400014004094
:102410000040014000440140004801404FF6FF7178
:10242000818000210180C1804180017270470000DD
:102430007FB505460C4601210820FFF78DF9ADF860
:102440000850ADF804400020ADF80A00ADF80600D1
:1024500001A90D48FFF790FF012211460A48FFF736
:10246000B4FE32208DF8000001208DF803008DF8B5
:10247000010003208DF802006846FEF779FE012175
:102480000148FFF7FDFD7FBD000C00400146B1F59E
:10249000167F03DB034A1278012A01D1012000E0F4
:1024A000002070472A00002010B540F2255109484D
:1024B00000F01BF960B10748001D0088064908605C
:1024C0000878FFF78FF840F22551024800F097F89E
:1024D00010BD000000440040C400002070B5044658
:1024E0000D464021104800F081F880210E4800F090
:1024F00086F813E021780C4800F0B2F900BF4021C3
:10250000094800F0E5F80128F9D14021064800F01B
:102510006DF88021044800F072F8641C2800A5F1D1
:102520000105E7D170BD00000044004010B540F245
:102530002551294800F0D9F800284CD02648001D24
:1025400000882649264A126888540846007855288B
:1025500003D04FF0FF30224908602148006801286D
:1025600007D11E484078562803D04FF0FF301C4951
:1025700008601B4800680A2823D100201849086019
:102580000DE0164916480068801C095C1548144A7D
:102590001268815412480068401C114908601048B4
:1025A00000680828EDDB0D48807A012802D10E4929
:1025B000087002E000200C4908704FF0FF30084915
:1025C000086040F22551044800F019F804480068FA
:1025D000401C0349086010BD004800405806002018
:1025E000D4000020C9000020D100002001F40072B6
:1025F000B2F5007F00D100BFCA430280704710B51A
:102600000022002340F66A14A14200D100BF0A1242
:1026100001249440A3B2DC43048010BD21B182891F
:1026200042F40052828104E082894DF6FF731A4021
:102630008281704710B504462048844209D10121A7
:102640008803FFF7B9F800214FF48040FFF7B4F892
:1026500032E01B48844209D101214804FFF78CF87D
:1026600000214FF40030FFF787F825E01548844239
:1026700009D101218804FFF77FF800214FF4802061
:10268000FFF77AF818E01048844209D10121C80404
:10269000FFF772F800214FF40020FFF76DF80BE010
:1026A0000A48844208D101210805FFF765F8002196
:1026B0004FF48010FFF760F810BD000000380140B3
:1026C0000044004000480040004C004000500040E2
:1026D00002460020B1F5007F00D100BF13880B40F7
:1026E0000BB1012000E00020704770B502460024C5
:1026F00000230025002040F66A16B14200D100BF39
:10270000C1F3421501F01F03012606FA03F3012D60
:1027100002D19689334006E0022D02D1168A334059
:1027200001E0968A33400C12012606FA04F416885A
:10273000344013B10CB1012000E0002070BDF0B5B1
:102740000346002400260025002040F66A17B942FF
:1027500000D100BF1846C1F3421401F01F06012743
:1027600007FA06F5012C01D10C3004E0022C01D14E
:10277000103000E014301AB107682F43076002E000
:102780000768AF430760F0BD2DE9F04786B0054606
:102790000E460024A24600BFA1460027B08900B122
:1027A00000BF2F462C8A4CF6FF700440F08804438B
:1027B0002C82AC894EF6F3100440B088318908436E
:1027C000718908430443AC81AC8A4FF6FF40044052
:1027D000B0890443AC8201A8FEF7FEFF1F48874280
:1027E00002D1DDF810A001E0DDF80CA0A88900F40A
:1027F000004040B10AEBCA0000EB0A103168490002
:10280000B0FBF1F807E00AEBCA0000EB0A103168F0
:102810008900B0FBF1F86420B8FBF0F00401200956
:10282000642101FB1089A88900F4004040B13220E6
:1028300000EBC900B0FBF1F000F00700044308E032
:10284000322000EB09106421B0FBF1F000F00F0022
:1028500004432C8106B0BDE8F08700000038014039
:10286000C1F308028280704700BFFEE741F6F42002
:102870000E4909684242914202DA41420B4A116014
:102880000A490968814201DD084908600849096868
:102890004242914202DA4142054A11600449096804
:1028A000814201DD024908607047000048000020B5
:1028B0004C000020014600BF704700004FF0E021AF
:1028C000096921F004014FF0E0221161C21700EB09
:1028D0005272C2F3C702074B1A701946097801EB0E
:1028E0004102C2EBC1114FF6FF7202EAC101024A76
:1028F00011807047880000208A00002001460D4AA0
:1029000012884A434FF0E0235A6100229A61012263
:102910001A6100BF4FF0E022106900F001021AB105
:1029200000F48032002AF5D000224FF0E0231A6133
:102930009A6170478A00002010B500204B4908704A
:102940004B480078072814D2DFE800F0041428422E
:102950005677800046480078401C454908700220A0
:1029600001F082FB01E0FEF709F8424800780028F8
:10297000F9D075E04048007801280ED100203D498B
:10298000087001E0FDF7FAFF3A4800780028F9D016
:1029900037480078401C3649087061E035480078B7
:1029A000012814D100203349087001E0FDF7E6FF4B
:1029B000304800780028F9D0032001F055FB2C485E
:1029C0000078401C2A49087001202A49087047E015
:1029D0002848007801280ED100202649087001E01F
:1029E000FDF7CCFF234800780028F9D02048007874
:1029F000401C1F49087033E01E48007801281BD195
:102A000000201C49087001E0FDF7B8FF1948007864
:102A10000028F9D0032001F027FB00201549087099
:102A200001E0FDF7ABFF134800780028F9D010480B
:102A30000078401C0E49087012E0022001F014FBDF
:102A40000B480078401C0A49087009E00A480078E1
:102A5000012804D10020094908700949087000BF05
:102A600000BF00200249087010BD00002A000020AD
:102A700016000020100000200F000020140000208D
:102A80001500002010B50020544908705448007803
:102A9000092815D2DFE800F0051529365064778A39
:102AA0009300022001F0E0FA4D480078401C4C49A8
:102AB000087001E0FDF762FF4A4800780028F9D06D
:102AC00087E04948007801280ED100204549087068
:102AD00001E0FDF753FF434800780028F9D0404853
:102AE0000078401C3E49087073E03E480078012899
:102AF00007D13B480078401C39490870012001F09B
:102B0000B3FA66E038480078012814D1002035492E
:102B1000087001E0FDF732FF324800780028F9D054
:102B2000032001F0A1FA2E480078401C2C490870BF
:102B300001202C4908704CE02A48007801280ED169
:102B400000202849087001E0FDF718FF25480078AB
:102B50000028F9D022480078401C2149087038E04C
:102B600000202049087001E0FDF708FF1D480078AB
:102B70000028F9D0042001F077FA19480078401CA9
:102B80001749087025E000201649087001E0FDF79C
:102B9000F5FE144800780028F9D0042001F064FA0A
:102BA0000F480078401C0E49087012E0022001F026
:102BB0005BFA0B480078401C0949087009E00A4894
:102BC0000078012804D100200849087008490870DD
:102BD00000BF00BF00200249087010BD2A0000207D
:102BE00017000020100000200F000020140000201B
:102BF0001500002010B50020544908705448007892
:102C0000092815D2DFE800F0051529365064778AC7
:102C10009300022001F028FA4D480078401C4C49EE
:102C2000087001E0FDF7AAFE4A4800780028F9D0B4
:102C300087E04948007801280ED1002045490870F6
:102C400001E0FDF79BFE434800780028F9D040489A
:102C50000078401C3E49087073E03E480078012827
:102C600007D13B480078401C39490870002001F02A
:102C7000FBF966E038480078012814D10020354976
:102C8000087001E0FDF77AFE324800780028F9D09C
:102C9000032001F0E9F92E480078401C2C49087007
:102CA00001202C4908704CE02A48007801280ED1F8
:102CB00000202849087001E0FDF760FE25480078F3
:102CC0000028F9D022480078401C2149087038E0DB
:102CD00000202049087001E0FDF750FE1D480078F3
:102CE0000028F9D0042001F0BFF919480078401CF1
:102CF0001749087025E000201649087001E0FDF72B
:102D00003DFE144800780028F9D0042001F0ACF909
:102D10000F480078401C0E49087012E0022001F0B4
:102D2000A3F90B480078401C0949087009E00A48DB
:102D30000078012804D1002008490870084908706B
:102D400000BF00BF00200249087010BD2A0000200B
:102D500018000020100000200F00002014000020A8
:102D6000150000204FF4A060FEF73AFA4820FFF764
:102D7000A5FD0220FEF7AAF8FEF7F0F8FEF7BEF870
:102D8000FEF784FAFDF74AFDFDF7A0FDFDF7CCFC48
:102D9000FDF766FC4FF49670FFF7B0FD4FF4E1309D
:102DA00001F098FAFEF758F9002141F61F40FEF7AE
:102DB0007DF94FF4E13001F0E1F94FF4E13001F039
:102DC0002FFAFDF7B5FE41F61F413120FFF730FB2A
:102DD000FEF72AF900F0F4BFFE480088042808DB5B
:102DE0000020FC490880FEF7ADFDFEF7D1F801F0A8
:102DF0000BF8F9480078012805D1F8480078012837
:102E000001D1FEF749FEF54800780228E2D100F032
:102E1000FBFFF1480078012879D1F148007841287A
:102E20004BD1F048007830B1012814D002281FD0CF
:102E3000032841D133E00020EB49087001E0FDF7A1
:102E40009DFDE94800780028F9D0E6480078401C4C
:102E5000E449087030E0E4480078012807D10020F8
:102E600001F002F9DF480078401CDE49087023E0D9
:102E7000DE480078012811D10020DB49087001E00C
:102E8000FDF77CFDD84800780028F9D0D5480078B7
:102E9000401CD4490870042001F0E6F80CE0D34847
:102EA0000078012807D10020D1490860D149086085
:102EB0000120D149087000BF8CE7C948007842283A
:102EC0004BD1C848007830B1012814D002281FD057
:102ED000032841D133E00020C349087001E0FDF729
:102EE0004DFDC14800780028F9D0BE480078401C4C
:102EF000BC49087030E0BC480078012806D101F0D8
:102F0000B3F8B8480078401CB649087024E055E290
:102F1000B6480078012811D10020B349087001E0BB
:102F2000FDF72CFDB04800780028F9D0042001F00E
:102F30009BF8AC480078401CAA4908700CE0AB48EC
:102F40000078012807D10020A9490860A949086034
:102F50000120A949087000BF3CE7A24800780B286F
:102F600018D2DFE800F00618275AB9F2F0EFEEEDBC
:102F7000EC0000209C49087001E0FDF7FFFC9A4836
:102F800000780028F9D097480078401C95490870CF
:102F9000FEF7D8FC11E294480078012809D10320FB
:102FA00001F062F88F480078401C8E490870FEF7E7
:102FB000C9FC00BF8D48007801282DD100208A4926
:102FC000087001208D49088001E0FDF7D7FC8B488F
:102FD000008801F054FB04460022894B01F062FB9B
:102FE000F3D900208549088081490860814908603B
:102FF0004FF4C870FFF782FC4FF4C870FFF77EFCF7
:1030000001E0FDF7BBFC784800780028F9D075484E
:103010000078401C7349087000BF7348007801288D
:1030200059D1784800787849097888420AD1774898
:103030000078012806D108206A49087043206849B1
:1030400008700FE06F4800786F490978884209D10D
:103050006E480078022805D1082062490870442093
:103060005F49087069480078A8BB032000F0FCFFA6
:1030700001206249088001E0FDF780FC5F4800887C
:1030800001F0FDFA044600225D4B01F00BFBF3D981
:1030900000205A49088056490860564908604FF494
:1030A000C870FFF72BFC4FF4C870FFF727FC002017
:1030B0004D49087001E0FDF761FC4B48007800289D
:1030C000F9D000204A4908604A490860454800781C
:1030D000401C4449087070E14348007801282DD114
:1030E000484800784849097888420ED14748007816
:1030F00001280AD13B480078401C3A490870452015
:1031000037490870FEF71EFC13E03E4800783E4940
:10311000097888420DD13D480078022809D131480C
:103120000078401C2F49087047202D490870FEF791
:1031300009FC3648007808B9FFF7FEFB3DE12FE1B6
:1031400017E1EDE084E023E0FFE72748007801285D
:103150001DD124480078401C22490870204800787E
:10316000452808D1002000F07FFF00202749087083
:10317000FEF7E8FB0BE01A480078472807D101204A
:1031800000F072FF002021490870FEF7DBFB14E11C
:103190001648007801285AD112480078401C11497D
:1031A000087000201049087001201449088001E0CF
:1031B000FDF7E4FB1148008801F061FA04460022A3
:1031C000134B01F06FFAF3D900200C49088008492D
:1031D00008601FE022000020A2000020BD000020A7
:1031E000BE00002014000020100000200F0000206E
:1031F00038000020440000202A000020EC000020BD
:1032000000807140BB000020BC000020B100002005
:1032100000006E40F94908604FF4C870FFF76EFB7C
:103220004FF4C870FFF76AFB4FF4C870FFF766FBF6
:103230004FF4C870FFF762FB4FF4C870FFF75EFBF6
:1032400001E0FDF79BFBEE4800780028F9D0B4E0E0
:10325000EB480078012862D1EA48007845282DD152
:10326000E9480078E949097888420DD1E8480078B2
:10327000012809D1E7480078401CE649087045203C
:10328000E0490870FEF75EFBDF480078DF49097807
:1032900088420DD1DE480078022809D1DD48007847
:1032A000401CDC4908704620D6490870FEF74AFBEE
:1032B000D748007898BBFFF7E5FB30E0D1480078AD
:1032C00047282CD1D0480078D049097888420DD1C0
:1032D000CF480078012809D1CE480078401CCD495C
:1032E00008704720C7490870FEF72CFBC6480078D5
:1032F000C649097888420DD1C5480078022809D10D
:10330000C4480078401CC34908704820BD49087073
:10331000FEF718FBBE48007808B9FFF76BFC4CE0DD
:10332000B7480078012823D1BA480078401CB94931
:103330000870B4480078432807D0B2480078452880
:1033400003D0B0480078472803D1002000F08CFE5D
:103350000EE0AC480078442807D0AA4800784628F8
:1033600003D0A8480078482802D1012000F07CFE54
:1033700023E0A9480078012811D1A6480078401C14
:10338000A449087000209E49087001E0FDF7F6FA94
:103390009B4800780028F9D0042000F065FE0CE07E
:1033A0009D480078012807D100209C490860934976
:1033B000086001209A49087000BF0BE59948007821
:1033C0000228FAD10020964908708E4800784128DA
:1033D00059D195480078052854D2DFE800F0030C55
:1033E000202C430090480078401C8F490870022030
:1033F00000F03AFE46E08848007801280ED100200F
:103400007F49087001E0FDF7B9FA7D48007800288F
:10341000F9D085480078401C8349087032E078482C
:103420000078012806D100F01FFE7F480078401C7C
:103430007D49087026E078480078012811D10020E5
:103440006F49087001E0FDF799FA6D48007800288F
:10345000F9D0042000F008FE73480078401C72493F
:1034600008700FE06C48007801280AD100206B49F1
:1034700008606249086001206949087000206B49B2
:10348000086000BFA6E45F48007842285AD1664829
:103490000078052855D2DFE800F0030C202D440009
:1034A00061480078401C60490870022000F0DCFD93
:1034B00047E05948007801280ED100205049087093
:1034C00001E0FDF75BFA4E4800780028F9D0564835
:1034D0000078401C5449087033E0494800780128BE
:1034E00007D1002000F0C0FD4F480078401C4E4935
:1034F000087026E048480078012811D10020404992
:10350000087001E0FDF73AFA3D4800780028F9D04C
:10351000042000F0A9FD44480078401C424908708E
:103520000FE03D48007801280AD100203B4908609F
:103530003249086001203A49087000203B49086080
:1035400000BF47E42F480078432871D136480078FF
:1035500007280DD2DFE800F0040D21304A799600EB
:10356000022000F081FD30480078401C2E49087090
:1035700094E02948007801280ED1002020490870E5
:1035800001E0FDF7FBF91E4800780028F9D0264835
:103590000078401C2449087080E019480078012810
:1035A00009D100F061FD01201B4908701E48007818
:1035B000401C1D49087071E017480078012814D19B
:1035C00000200F49087001E0FDF7D8F90C48007899
:1035D0000028F9D0032000F047FD13480078401C74
:1035E0001149087001200649087057E00448007826
:1035F000012829D10020024908701CE04400002065
:1036000010000020BE000020BB000020BC000020F5
:10361000B1000020140000200F000020380000201E
:103620002A000020A200002015000020B4812142C1
:1036300035E0FDF7A3F9FA4800780028F9D0F948F9
:103640000078401CF749087028E00020F449087011
:1036500001E0FDF793F9F24800780028F9D0042042
:1036600000F002FD0020EE49087001E0FDF786F948
:10367000EB4800780028F9D0EA480078401CE94976
:1036800008700BE00020E8490860E8490860012064
:10369000E74908700020E749086000BF90E3E6486A
:1036A0000078442872D1DF48007807280DD2DFE87F
:1036B00000F0040D212E485C7A00022000F0D4FCBA
:1036C000D8480078401CD749087078E0DB4800787B
:1036D00001280ED10020D249087001E0FDF74EF913
:1036E000CF4800780028F9D0CE480078401CCD495A
:1036F000087064E0CA480078012807D1002000F073
:10370000B3FCC8480078401CC649087057E0CB4855
:103710000078012814D10020C149087001E0FDF7AC
:103720002DF9BF4800780028F9D0032000F09CFC58
:10373000BC480078401CBB4908700120B84908709B
:103740003DE0B748007801280ED10020B449087048
:1037500001E0FDF713F9B24800780028F9D0B1482C
:103760000078401CAF49087029E00020AC4908707F
:1037700001E0FDF703F9AA4800780028F9D00420F9
:1037800000F072FC0020A649087002E018E0FDF786
:10379000F5F8A34800780028F9D0A2480078401C2A
:1037A000A04908700BE000209F4908609F4908600D
:1037B00001209F49087000209E49086000BFFFE279
:1037C0009D48007845286FD1964800780A280ED287
:1037D000DFE800F0050E222F43506B7F92A5914841
:1037E0000078401C8F490870022000F03DFCA2E0E8
:1037F0009248007801280ED18A480078401C8949F7
:10380000087000208649087001E0FDF7B7F8844889
:1038100000780028F9D08EE081480078012807D18F
:1038200080480078401C7F490870012000F01CFC93
:1038300081E08248007801280ED17A480078401C47
:103840007849087000207649087001E0FDF796F885
:10385000734800780028F9D06DE07148007801289D
:1038600007D170480078401C6E490870012000F0B4
:10387000FBFB60E071480078012814D10020684902
:10388000087001E0FDF77AF8654800780028F9D063
:10389000032000F0E9FB63480078401C6149087090
:1038A00001205F49087046E046E05D480078012845
:1038B0000ED100205A49087001E0FDF75FF8584822
:1038C00000780028F9D057480078401C5549087006
:1038D00031E000205249087001E0FDF74FF85048F0
:1038E00000780028F9D0042000F0BEFB4D48007895
:1038F000401C4C4908701EE000204949087001E056
:10390000FDF73CF8464800780028F9D0042000F084
:10391000ABFB44480078401C424908700BE0002093
:103920004149086041490860012041490870002070
:103930004049086000BF43E23F48007846287FD1F5
:10394000384800780A280ED2DFE800F0050E222F52
:1039500043507B8FA2B533480078401C3149087032
:10396000022000F081FBB2E03448007801280ED13B
:103970002C480078401C2B4908700020284908700A
:1039800001E0FCF7FBFF264800780028F9D09EE014
:1039900023480078012807D122480078401C21499B
:1039A0000870002000F060FB91E0244800780128B6
:1039B0000ED11C480078401C1A4908700020184994
:1039C000087001E0FCF7DAFF154800780028F9D00C
:1039D0007DE013480078012807D112480078401C88
:1039E00010490870012000F03FFB70E01348007898
:1039F000012814D100200A49087001E0FCF7BEFF3D
:103A0000074800780028F9D0032000F02DFB054876
:103A10000078401C0349087001200149087056E0F5
:103A20001000002015000020380000204400002075
:103A30002A000020B4812142BE0000200F00002097
:103A400046E0E048007801280ED10020DD490870EA
:103A500001E0FCF793FFDB4800780028F9D0DA4852
:103A60000078401CD849087031E00020D549087022
:103A700001E0FCF783FFD34800780028F9D0042048
:103A800000F0F2FAD0480078401CCF4908701EE0E0
:103A90000020CC49087001E0FCF770FFC9480078AD
:103AA0000028F9D0042000F0DFFAC7480078401C55
:103AB000C54908700BE00020C4490860C44908608B
:103AC0000120C44908700020C349086000BF77E1A5
:103AD000C248007847286FD1BB4800780A280ED228
:103AE000DFE800F0050E222F43506B7F92A5B64809
:103AF0000078401CB4490870022000F0B5FAA2E03A
:103B0000B748007801280ED1AF480078401CAE4974
:103B100008700020AB49087001E0FCF72FFFA948AE
:103B200000780028F9D08EE0A6480078012807D157
:103B3000A5480078401CA4490870012000F094FAC0
:103B400081E0A748007801280ED19F480078401CEA
:103B50009D49087000209B49087001E0FCF70EFFAA
:103B6000984800780028F9D06DE096480078012840
:103B700007D195480078401C93490870002000F058
:103B800073FA60E096480078012814D100208D492E
:103B9000087001E0FCF7F2FE8A4800780028F9D0AE
:103BA000032000F061FA88480078401C86490870BC
:103BB00001208449087046E046E0824800780128E8
:103BC0000ED100207F49087001E0FCF7D7FE7D4848
:103BD00000780028F9D07C480078401C7A490870A9
:103BE00031E000207749087001E0FCF7C7FE754816
:103BF00000780028F9D0042000F036FA72480078E6
:103C0000401C714908701EE000206E49087001E0F8
:103C1000FCF7B4FE6B4800780028F9D0042000F0CF
:103C200023FA69480078401C674908700BE00020BF
:103C300066490860664908600120664908700020EE
:103C40006549086000BFBBE06448007848286FD130
:103C50005D4800780A280ED2DFE800F0050E222F1A
:103C600043506B7F92A558480078401C5649087015
:103C7000022000F0F9F9A2E05948007801280ED19D
:103C800051480078401C5049087000204D49087088
:103C900001E0FCF773FE4B4800780028F9D08EE075
:103CA00048480078012807D147480078401C464919
:103CB0000870002000F0D8F981E049480078012818
:103CC0000ED141480078401C3F49087000203D4912
:103CD000087001E0FCF752FE3A4800780028F9D05D
:103CE0006DE038480078012807D137480078401C3B
:103CF00035490870002000F0B7F960E038480078D6
:103D0000012814D100202F49087001E0FCF736FE8D
:103D10002C4800780028F9D0032000F0A5F92A48A3
:103D20000078401C2849087001202649087046E0A8
:103D300046E02448007801280ED10020214908706F
:103D400001E0FCF71BFE1F4800780028F9D01E4850
:103D50000078401C1C49087031E0002019490870A7
:103D600001E0FCF70BFE174800780028F9D004208A
:103D700000F07AF914480078401C134908701EE0DE
:103D800000201049087001E0FCF7F8FD0D480078AC
:103D90000028F9D0042000F067F90B480078401C97
:103DA000094908700BE000200849086008490860CC
:103DB00001200849087000200749086000BF00BFC3
:103DC000FFF70AB81000002015000020380000207E
:103DD000440000202A000020B4812142BE000020BF
:103DE0000F0000200146002901DA484200E00846A1
:103DF000704710B50246012000E050430B00A1F1CE
:103E00000104E1B2F9D110BD38B579A2002108460C
:103E1000FDF79AFB01200C230090774802780021DF
:103E20004120FDF7F3FA75A20A210020FDF78CFB73
:103E30000C2003230090724802780A211E20FDF70F
:103E400039FB0C20032300906E4802780021642087
:103E5000FDF730FB6CA214210020FDF775FB00215B
:103E60006C48006800F02EFE15D26BA21421502081
:103E7000FDF76AFB6748006880F00045284600F0BF
:103E8000D5FD04460C2005232246142100905F2016
:103E9000FDF710FB11E061A214215020FDF754FB47
:103EA0005C48006800F0C2FD04460C200523224651
:103EB000142100905F20FDF7FDFA59A21E21002079
:103EC000FDF742FB00215848006800F0FBFD15D2C9
:103ED00051A21E215020FDF737FB5348006880F0A7
:103EE0000045284600F0A2FD04460C20052322468A
:103EF0001E2100905F20FDF7DDFA11E047A21E2190
:103F00005020FDF721FB4848006800F08FFD044673
:103F10000C20052322461E2100905F20FDF7CAFADF
:103F200042A228210020FDF70FFB42A228214420B5
:103F3000FDF70AFB40A228215A20FDF705FB3F4868
:103F40000068642190FBF1F40C2002232246282112
:103F500000903720FDF7AEFA38480068642190FBE6
:103F6000F1F201FB12040C200223224628210090CA
:103F70004E20FDF79FFA31480068642190FBF1F272
:103F800001FB12000A2807DA0C2002230022282154
:103F900000904820FDF78EFA2948007820B929A220
:103FA00028216720FDF7D0FA25480078012804D1A0
:103FB00025A228216720FDF7C7FA24A2322100207C
:103FC000FDF7C2FA23480078012805D122A2322148
:103FD0002820FDF7B9FA08E01E480078022804D12D
:103FE0001FA232212820FDF7AFFAFDF7E9F938BD0D
:103FF0005461726765740000BE0000204C6F52006F
:10400000B1000020BD00002056656C6F63697479B3
:1040100000000000380000202D0000002B000000F0
:104020005475726E0000000044000020564F4C543E
:10403000414745002E000000560000005C000020B3
:104040002A0000204F2D4E004F4646002079616F18
:104050002D000000A2000020676F2020000000005B
:104060006261636B0000000010B5044600203C490B
:10407000087001203B49087000203B490870E4B9F2
:104080003A483B49086000203A4908604FF44870BC
:10409000FEF734FC0020364908603748354908608F
:1040A0004FF4EB70FEF72AFC0020314908603149DB
:1040B0000860C820FEF722FC4DE0012C1CD12B48E3
:1040C0002B49086000202B4908604FF44870FEF728
:1040D00015FC0020264908602448264908604FF452
:1040E000EB70FEF70BFC00202149086021490860B5
:1040F000C820FEF703FC2EE0022C13D100201C493F
:1041000008601A481B49086040F2A230FEF7F6FB2F
:10411000002017490860174908604FF4FA70FEF74D
:10412000EDFB18E0032C0AD110481149086000206B
:10413000104908604FF4FA70FEF7E0FB0BE0042C26
:1041400009D10A480A49086000200A4908604FF46A
:104150007A70FEF7D3FB01200349087010BD000000
:10416000100000200E0000200F0000200000A041E1
:1041700038000020440000200000A0C110B586B027
:10418000044601210420FDF707FB01214804FDF747
:10419000E3FA0420ADF8140003208DF8160018206F
:1041A0008DF8170005A91C48FCF726FD0820ADF87E
:1041B000140004208DF8170005A91748FCF71CFD12
:1041C00026208DF8000000208DF801008DF80200F7
:1041D00001208DF803006846FCF7CAFF0194002017
:1041E000ADF80800ADF80A00ADF80C00ADF810000D
:1041F0000C20ADF80E0001A90848FEF7C5FA01220F
:1042000040F225510548FEF79AFA01210348FEF7CE
:1042100005FA06B010BD000000080140004400404F
:1042200010B586B0044601218804FDF795FA0121F6
:104230000920FDF7B1FA2548FEF7FCF94FF40060BC
:10424000ADF8040004208DF8070001A92048FCF710
:10425000D3FC4FF48060ADF8040003208DF8060015
:1042600018208DF8070001A91948FCF7C5FC029435
:104270000020ADF80C00ADF80E00ADF81000ADF860
:1042800014000C20ADF8120002A91048FEF77CFAC9
:10429000012240F225510D48FEF751FA01210B4849
:1042A000FEF7BCF94FF4E060FCF79AFF27208DF889
:1042B000000001208DF801008DF802008DF8030048
:1042C0006846FCF755FF06B010BD000000480040EE
:1042D000000C014010B586B00446012144F20400F0
:1042E000FDF75AFA4FF40070ADF8140003208DF872
:1042F000160018208DF8170005A91548FCF77CFC5E
:104300004FF48060ADF8140004208DF8170005A963
:104310000F48FCF771FC01940020ADF80800ADF8DF
:104320000A00ADF80C00ADF810000C20ADF80E003E
:1043300001A90848FEF728FA012240F22551054854
:10434000FEF7FDF901210348FEF768F906B010BD3C
:104350000008014000380140491058BFC1F14041F8
:104360005B1058BFC3F140438B42EFF300807047AE
:104370002DE9C04130B4DFF8A0C23CEA111418BFE7
:104380003CEA131400F0EC8081EA03051CEA1114E6
:1043900044EAD57418BF1CEA131500F0C780A4EBDB
:1043A00005044FF0004545EAC12145EAC32341EA2F
:1043B000505143EA525304F17F74994204F500349A
:1043C0004FEAC0204FEAC22208BF904200F09C8012
:1043D0004FEA13650FF24016765D4FEA134506FB70
:1043E00005F7C7F1807706FB07F74FEAD737A7FB3A
:1043F00003687642C8F58038A7FB06CE38BFA8F11F
:10440000010807FB08E64FF0000EA6FB028CE6FB56
:1044100003CEDCF1000CCEF1004E38BFAEF1010E40
:10442000A6FB0C584FF000074FF00005E6FB0E8787
:10443000A1FB08C6A0FB07CE16EB0E0645F1000552
:10444000E1FB076515F1E04E7EBFA4F580345FEA1D
:1044500046066D4116F1800745F100054FEA172722
:104460004FEA066647EA0567A6F1DE46B6F1805FC9
:104470004FEA15251FD9384624F0010C05EBC4710D
:10448000BCF1FE6F01EB0C1102D8F0BCBDE800815D
:1044900024425CBF01F5801E9EEAC47F02D4F0BCBA
:1044A000BDE80081244238D4F0BCA1F1C041BDE890
:1044B000004100F02BBA4FEAD22242EA43524FEABF
:1044C000D323A7FB02864FEAD02040EA415007FBE6
:1044D00003661EEA0E0F4FEAD12105FB026658BFA4
:1044E000A6EB0056B6EB00564FEA520E4EEAC37EDC
:1044F00018EB0E0E56EB530EBDD518EB02085E41BD
:104500007F1C55F10005B6E74FF480154FF000070A
:104510004FF000064FF00008ADE7F0BC4FF0000090
:1045200001F1C04101F00041BDE8008111EA0C1F1A
:104530000CEA131500D00CE013EA0C1F00F02580E4
:104540004FF00000F0BC81EA030101F00041BDE83A
:104550000081F0BCBDE8004181EA030100F0D6B95A
:10456000F0BCBDE8004170B500F082F9097EFC3E68
:1045700000F007B881EA03014FF0000001F00041AC
:10458000704781EA030100F0C1B9F0BCBDE8004109
:104590004FF0000021497047FFFDFBF9F7F5F4F2F9
:1045A000F0EEEDEBE9E8E6E4E3E1E0DEDDDBDAD8CE
:1045B000D7D5D4D3D1D0CFCDCCCBCAC8C7C6C5C42C
:1045C000C2C1C0BFBEBDBCBBBAB9B8B7B6B5B4B343
:1045D000B2B1B0AFAEADACABAAA9A8A8A7A6A5A42E
:1045E000A3A3A2A1A09F9F9E9D9C9C9B9A999998F2
:1045F0009797969595949393929191908F8F8E8E95
:104600008D8C8C8B8B8A8989888887878685858421
:1046100084838382828181800000FF070000F87F0D
:104620004FEA41034FEA5353A3F58063D3F11E03CE
:10463000C8BFD3F1210C0CDD4FF0004242EAC12289
:1046400042EA505232FA03FC8CEAE17CACEBE170B6
:104650007047102BC4BF0020704703F5787CBCF175
:10466000FF3F04D06FF0004282EA2100704770B52E
:1046700000F0FEF84992248000207047F2E7B0FA7B
:1046800080F310FA03F10AD0C3F11D0303F5806330
:104690004FEA41504FEA035202EBD12170474FF0ED
:1046A0000000704751EA030C17D41CF5801F58BF57
:1046B000BCF5801F00F10680994218BF704708BF03
:1046C0009042704707D711F5801F58BF13F5801F20
:1046D00019D499427047894270471CF5801F08D54C
:1046E000BCF5801FF7D58B4218BF704708BF8242C8
:1046F00070474FF4001C1CEB410F38BF1CEB430FFD
:1047000001D28B42704770B500F0B2F89224490094
:104710004FF000514FF08053FFF71EBEDFF848C145
:1047200070B51CEA111E1EBF1CEA13159EEA0C0F81
:1047300095EA0C0F00F06F8081EA030423EA4C1322
:104740004EEAD47E21EA4C1141F4801143F48013E7
:10475000AE44A1FB024CA0FB0365AEF17F7E36198F
:1047600055EB0C05A1FB034C4CF10003A0FB021C14
:1047700016EB0C06654153F10003094218BF46F0E1
:10478000010613F4007F0BD14FEA03314FEA0530E5
:10479000340341EA155140EA16506FF003020AE073
:1047A0004FEAC3214FEAC520F40241EA555140EADD
:1047B00056506FF0020202EB2E4201EB025585EAE1
:1047C000CE710AD05FEA440C18BF24F0004450F1C7
:1047D000000041F1000120EAD47040F2FE7C624505
:1047E00000D270BDA84214BF4FF080444FF0404447
:1047F000002E08BF0024BEF1806FA8BFA1F1C04108
:10480000BDE8704080F282804FF0000001F1C041AD
:1048100001F0004170479EEA0C0F0CEA131518BF17
:1048200095EA0C0F06D04FF0000081EA030E0EF05F
:10483000004170BD00F01CF88900013E00F007B88F
:1048400000F009B84FEA430C5FEA5C5C08D081EAEB
:10485000030100F05BB84FEA410C5FEA5C5CF6D103
:104860004FF00000014970470000FF070000F87F8B
:104870000EF1020E2EF0030E5EF8046B364205D4E4
:10488000012A43EB030515F5001F12D8012841EB5F
:10489000010C1CF5001F0CD80ED14FEAD17C15F588
:1048A000001F0CEB4C0C0CF1020C08BF4CEBD37C42
:1048B00004E04FF0080C01E04FEAD37C0CEB4C0510
:1048C00026FA05F606F00706B6F1040C06D20EEB42
:1048D000860CBDE870404CF0010C6047DFE80CF03E
:1048E000090B02024FF000414FF00000A1F500213A
:1048F00070BD19461046012851EB010418BFD4F5CC
:10490000001484BF002001F0004170BD0808A0F52C
:1049100000114FEA3101704790EA010F48BF81F062
:10492000004100F1D681421A3CBF801A89184FEA33
:10493000D0524FF07F4C1CEA410FA2EBD15318BF6D
:104940009CEA026F00F03B804FF0004C4CEA0020E4
:104950004CEA012121FA03FC10EB0C0C1ED202F1EF
:10496000FF325FEA1C2040EBC25038BF70471CF09A
:104970007F0F4FEA400C18BFBCF17F4F38BF704724
:10498000C3F12003994008BF20F00100BCF17F4F24
:1049900038BF7047A0F1C04000F08FB94FEA3C002B
:1049A000000A40EBC25028BF1CF0FF0F4FEA400C3A
:1049B000E6D018BFBCF17F4F38BF7047EAE79CEAEA
:1049C000026F05D010EA5C0F08BF00F0004070478E
:1049D00010B500F02CF900BF64FBBE3E401058BF7C
:1049E000C0F14040491058BFC1F140418142EFF34E
:1049F0000080704741000B0ED3F19E0208D950F49D
:104A000000034FEA032323FA02F048BF40427047F5
:104A100010B500F00CF900BF4992248000207047C7
:104A20006FF0004282EA200070470000C10DD1F112
:104A30009E0206DB4FEA002343F0004323FA02F014
:104A40007047004207D54FEA4001B1F1FE4F02D254
:104A50004FF00000704710B500F0E9F8499224804B
:104A6000002070476FEA20007047000010F00041FE
:104A700048BF4042B0FA80F310FA03F2C3F19D033D
:104A80000BD051EAC35101EB1220530638BF7047D7
:104A900000F1010008BF20F001007047B0FA80F378
:104AA00010FA03F2C3F19D030AD0D90501EB1220DD
:104AB000530638BF704700F1010008BF20F0010025
:104AC0007047000050EA010C00F113801CF5000F44
:104AD00058BFBCF5000F01D48842704707D710F5C6
:104AE000000F58BF11F5000F15D488427047894256
:104AF00070471CF5000F04D5BCF5000FF7D58142B7
:104B000070474FF0807C1CEB400F38BF1CEB410F0F
:104B100001D28142704710B500F089F89224490013
:104B20004FF000504FF08051FFF758BF4FF47F0C0B
:104B30001CEAD0121EBF1CEAD11392EA0C0F93EAB2
:104B40000C0F00F0478090EA010F48BF42F48072DA
:104B50004FF0004C4CEA00204CEA012102EB03022A
:104B6000A0FB0113A2F50002002918BF43F00103C6
:104B70005B0028BF4FEA330342EB22425FEA132C6B
:104B80004CEBC2502EBFBCEB436FB2F57C0F7047AD
:104B90004FEA036CBCF1004F08BF20F00100B2F5F2
:104BA0007C0F38BF70470BD582F0FF0212F5803FB3
:104BB000C8BF704700F1C040D8BF00F00040704748
:104BC00000F5000C5FEA4C0C48BF7047B0F1C040E4
:104BD00000F073B890EA010F0CEAD11348BF42F419
:104BE0008072624538BF634504D280EA010000F05C
:104BF0000040704710B500F01AF800BF8900013E70
:104C000000F007B800F009B85FEA410C5FEA1C6CDD
:104C100008D080EA010000F050B85FEA400C5FEA7B
:104C20001C6CF6D14FF00040A0F5800070470EF1EB
:104C3000020E2EF0030E5EF8044B244204D44FEA19
:104C40004102B2F17F4F11D84FEA4003B3F17F4FD9
:104C50000CD80ED14FEAD07CB2F17F4F0CEB4C0C4C
:104C60000CF1020C08BF4CEBD17C04E04FF0080CB7
:104C700001E04FEAD17C0CEB4C0324FA03F404F07E
:104C80000704B4F1040C06D20EEB840CBDE810400E
:104C90004CF0010C6047DFE80CF0070802024FF00F
:104CA0000040A0F5800010BD0846420018BFD2F1B8
:104CB000807288BF00F0004010BDFF2141EAD05053
:104CC000C005704790EA010F48BF81F000413FF5F1
:104CD0002AAE421A04D882F00042A0EB020011442E
:104CE0004FEAD0524FF07F4C1CEA410FA2EBD15358
:104CF00018BF9CEA026F4AD04FF0004C4CEA0020EB
:104D00004CEA012121FA03FCB0EB0C0C0FD412F099
:104D1000FE0F36D05FEA4C001DD5001240EBC250AA
:104D200038BF70471CF03F0F18BF70470BE0A2F16F
:104D300001025FEA1C2040EBC25038BF70471CF0F4
:104D40007F0F18BF7047C3F12003994014BF401E66
:104D500020F00100704780084FEA122308BF704717
:104D6000B0FA80FCA2EB0C02CCF1280C60FA0CF03B
:104D700093EA122F04BF00EBC25070474FEAC37092
:104D80007047130A5FEADC1008BF7047F6E79CEA39
:104D9000026F04D010EA5C0F08BF0020704710B506
:104DA000FFF745FF40DFF63E81F00040704700000E
:104DB00000000000000000000000000000003F4074
:104DC0000000000000000000300040003000400003
:104DD000000009000BC03D000BC03D00090018C0D9
:104DE00024407FE0224031800000180024C01B00D6
:104DF0000D803240018003801C4027401C8007400A
:104E000000401000600000000000000000000000F2
:104E1000000000001F802040402000004020204073
:104E20001F8000000000090006001F800600090026
:104E30000000040004003F80040004000000001093
:104E400000600000000000000000040004000400F6
:104E5000040004000000000000400000000000000A
:104E60000000002001C006003800400000001F8044
:104E70002040204020401F800000000010403FC024
:104E800000400000000018C021402240244018408B
:104E9000000010802040244024401B8000000200BD
:104EA0000D0011003FC0014000003C802440244020
:104EB0002440238000001F8024402440344003808D
:104EC00000003000200027C03800200000001B80B8
:104ED0002440244024401B8000001C0022C02240AB
:104EE00022401F8000000000000008400000000079
:104EF000000000000000046000000000000000004E
:104F000004000A0011002080404009000900090047
:104F100009000900000000004040208011000A0044
:104F200004001800200023402400180000001F8007
:104F30002040274029401F400000004007C03900A2
:104F40000F0001C0004020403FC0244024401B808F
:104F500000001F8020402040204030800000204082
:104F60003FC0204020401F80000020403FC0244020
:104F70002E4030C0000020403FC024402E003000B2
:104F800000000F00108020402240338002002040AB
:104F90003FC0040004003FC02040204020403FC0EC
:104FA0002040204000000060202020203FC0200042
:104FB000200020403FC024400B0030C02040204053
:104FC0003FC020400040004000C03FC03C0003C044
:104FD0003C003FC0000020403FC00C4023003FC0C9
:104FE00020001F802040204020401F8000002040E3
:104FF0003FC024402400180000001F8021402140B1
:1050000020E01FA0000020403FC02440260019C01F
:10501000004018C02440244022403180000030006D
:1050200020403FC020403000000020003F80004072
:1050300000403F80200020003E0001C007003800F3
:105040002000380007C03C0007C0380000002040A6
:1050500039C0060039C0204000002000384007C099
:10506000384020000000304021C02640384020C099
:105070000000000000007FE0402040200000000011
:1050800070000C0003800040000000004020402021
:105090007FE0000000000000200040002000000031
:1050A00000000010001000100010001000100000A0
:1050B00000004000000000000000000002800540E9
:1050C000054003C0004020003FC00440044003806E
:1050D000000000000380044004400640000000007F
:1050E0000380044024403FC000400000038005408E
:1050F000054003400000000004401FC0244024403D
:105100002000000002E00550055006500420204019
:105110003FC00440040003C000400000044027C01A
:1051200000400000000000100010041027E0000004
:10513000000020403FC00140070004C00440204060
:1051400020403FC000400040000007C0040007C0EE
:10515000040003C00000044007C00440040003C072
:10516000004000000380044004400380000004105D
:1051700007F0045004400380000000000380044056
:10518000045007F00010044007C00240040004006F
:105190000000000006400540054004C0000000007B
:1051A00004001F800440004000000400078000400D
:1051B000044007C000400400070004C0018006004E
:1051C0000400060001C0070001C006000000044002
:1051D00006C0010006C0044000000410071004E0EF
:1051E0000180060004000000044005C006400440A1
:1051F00000000000000004007BE0402000000000F0
:1052000000000000FFF000000000000040207BE0F4
:10521000040000000000400080004000200020004A
:10522000400000000000000000000000000000003E
:1052300000000000000000001FCC000C0000000077
:10524000000000000800300060000800300060002E
:105250000000022003FC1E20022003FC1E2002206E
:10526000000000000E1811043FFF10840C780000AD
:1052700000000F0010840F3800C0077818840078F1
:10528000000000780F8410C411240E9800E40084FC
:105290000008080068007000000000000000000026
:1052A000000000000000000007E018182004400281
:1052B0000000000040022004181807E00000000071
:1052C00000000240024001800FF0018002400240D5
:1052D00000000080008000800FF8008000800080C7
:1052E00000000001000D000E0000000000000000A2
:1052F00000000000008000800080008000800080AE
:1053000000800000000C000C000000000000000005
:105310000000000000060018006001800600180070
:105320002000000007F0080810041004080807F027
:1053300000000000080408041FFC00040004000032
:10534000000000000E0C10141024104411840E0CE8
:10535000000000000C1810041104110412880C70D5
:105360000000000000E00320042408241FFC0024A7
:10537000000000001F9810841104110410881070A0
:105380000000000007F0088811041104188800705C
:10539000000000001C00100010FC13001C00100096
:1053A000000000000E3811441084108411440E389F
:1053B000000000000700088C10441044088807F023
:1053C0000000000000000000030C030C00000000BF
:1053D00000000000000000010106000000000000C5
:1053E00000000000008001400220041008081004A2
:1053F00000000220022002200220022002200220BF
:105400000000000010040808041002200140008081
:10541000000000000E001200100C106C10800F0035
:10542000000003E00C1813E4142417C4082807D064
:1054300000000004003C03C41C40074000E4001CC2
:10544000000410041FFC1104110411040E880070E4
:10545000000003E00C1810041004100410081C10C5
:10546000000010041FFC100410041004080807F0CA
:10547000000010041FFC1104110417C410040818C4
:10548000000010041FFC1104110017C010000800D8
:10549000000003E00C181004100410441C780040B5
:1054A000000010041FFC10840080008010841FFC8A
:1054B00010040000100410041FFC1004100400006D
:1054C000000000030001100110011FFE1000100079
:1054D000000010041FFC110403801464181C100445
:1054E000000010041FFC1004000400040004000C61
:1054F000000010041FFC1F0000FC1F001FFC100414
:10550000000010041FFC0C04030000E010181FFC36
:10551000100007F00808100410041004080807F031
:10552000000010041FFC10841080108010800F00F9
:10553000000007F0081810241024101C080A07F2B5
:10554000000010041FFC1104110011C011300E0CDA
:10555000000400000E1C11041084108410441C3838
:1055600000001800100010041FFC100410001800A8
:10557000000010001FF810040004000410041FF8BD
:10558000100010001E0011E0001C007013801C00B1
:1055900010001FC0103C00E01F0000E0103C1FC0C6
:1055A00000001004180C163401C001C01634180C89
:1055B000100410001C00130400FC13041C00100055
:1055C00000000804101C1064108413041C0410183C
:1055D00000000000000000007FFE40024002400288
:1055E0000000000030000C0003800060001C00037D
:1055F000000000004002400240027FFE0000000068
:10560000000000000000200040004000400020009A
:105610000000000100010001000100010001000183
:1056200000010000400040002000000000000000D9
:10563000000000000098012401440144014400FCE2
:10564000000410001FFC00880104010400880070A1
:1056500000000000007000880104010401040088BB
:1056600000000000007000880104010411081FFC04
:105670000004000000F8014401440144014400C852
:1056800000000000010401040FFC110411041100CA
:105690001800000000D601290129012901C90106CD
:1056A000000010041FFC008401000100010400FC44
:1056B000000400000104190419FC000400040000A7
:1056C00000000000000300010101190119FE0000A3
:1056D000000010041FFC0024004001B4010C010470
:1056E00000000000100410041FFC0004000400006F
:1056F0000000010401FC0104010001FC010401009F
:1057000000FC010401FC008401000100010400FC14
:105710000004000000F8010401040104010400F881
:105720000000010101FF00850104010400880070F0
:10573000000000000070008801040104010501FF61
:1057400000010104010401FC008401040100018046
:105750000000000000CC0124012401240124019850
:10576000000000000100010007F80104010400002E
:105770000000010001F8000400040004010801FC1D
:105780000004010001800170000C00100160018024
:10579000010001F0010C003001C00030010C01F0EB
:1057A000010000000104018C00740170018C0104EF
:1057B0000000010101810171000E001801600180EB
:1057C000010000000184010C013401440184010C3A
:1057D0000000000000000000000001003EFC40024C
:1057E00040020000000000000000FFFF0000000079
:1057F00000000000400240023EFC010000000000EA
:105800000000000060008000800040004000200098
:105810002000000034580008000000201C01000097
:105820006C010008505900081C010020AC0B00005E
:1058300088010008000000000000000000000000D7
:105840000000000000000000000000000000000058
:10585000F401000000000000000100000000010051
:105860000000000000000000000000000000000038
:105870000000000000000000000000000000000028
:105880000000000000000000000000000000000018
:105890000000000000000000000000000000404187
:1058A000000040411E000000000000000000000059
:1058B00000000000000000000000000000000000E8
:1058C00000000000010203040102030406070809A6
:1058D00002040608000000000000000000000000B4
:1058E00000000000000000000000000000000000B8
:1058F0000001300000000000000000000000000077
:105900000000000000000000000000000000000097
:105910000000000000000000000000000000000087
:105920000000000000000000000000000000000077
:105930000000000000000000000000000000000067
:105940000000000000000000000000000000000057
:04000005080001D519
:00000001FF
